:040000007BEF07F09B
:10030000000F000F0C0F0D0F0F0B0C0B0D0B0F0A36
:100310000F090F080F070F060D060E060F030E0339
:100320000F020F010F000FFFFF155BB9D010A08067
:1003300007AB280064E71E41717D00C682554F0C53
:100340009745B82DFC9780A1046ADF00B64200C42F
:050350004200D0420054
:10035600206E230E0C6E000E0D6E04EC07F0E80600
:10036600D8B41200B20E2324216E020E2420226E6F
:100376002050D8B45CD0000E266E000E256E265096
:1003860005E1030E255CD8B0120001D0120021C091
:1003960009F022C00AF04CEC07F009C00CF00AC0C4
:1003A6000DF00BC00EF0000E046E030E036E25C09A
:1003B60001F026C002F039EC07F04B0E0124F66E70
:1003C600030E0220F76E0900F5CF0FF00900F5CFF6
:1003D60010F00A00F5CF11F041EC05F0D8B022D0AC
:1003E60025C001F026C002F0000E046E030E036E57
:1003F60039EC07F04B0E0124F66E030E0220F76E61
:100406000900F5CF07F00900F5CF08F00A00F5CF8F
:1004160009F0AAEC03F007C016F008C017F047EC85
:1004260006F01200254A262A265058E1AAD7000EC1
:10043600266E030E256E25502610D8B4120025C050
:1004460001F026C002F0000E046E030E036E39ECB6
:1004560007F04B0E0124F66E030E0220F76E09001C
:10046600F5CF0CF00900F5CF0DF00A00F5CF0EF030
:1004760021C009F022C00AF04CEC07F009C00FF0C9
:100486000AC010F00BC011F041EC05F0D8B022D034
:1004960025C001F026C002F0000E046E030E036EA6
:1004A60039EC07F04B0E0124F66E030E0220F76EB0
:1004B6000900F5CF07F00900F5CF08F00A00F5CFDF
:1004C60009F0AAEC03F007C016F008C017F047ECD5
:1004D60006F012002506D8A02606ADD7120082A087
:1004E60009D0038001C0D9FF02C0DAFF010EDF6E1A
:1004F600010E120003B009D0038001C0D9FF02C06B
:10050600DAFF010EDF6E020E120003B209D003827B
:1005160001C0D9FF02C0DAFF020EDF6E020E120022
:100526008250060B040AD8A409D0038401C0D9FF5F
:1005360002C0DAFF040EDF6E010E120003B409D00A
:10054600038401C0D9FF02C0DAFF040EDF6E020E7B
:1005560012008250070B080AD8A409D0038601C0EE
:10056600D9FF02C0DAFF080EDF6E010E120003B6D5
:1005760009D0038601C0D9FF02C0DAFF080EDF6E7C
:10058600020E12008450040B100AD8A409D0038866
:1005960001C0D9FF02C0DAFF100EDF6E010E120095
:1005A60003B809D0038801C0D9FF02C0DAFF100ED4
:1005B600DF6E020E12008450050B200AD8A409D063
:1005C600038A01C0D9FF02C0DAFF200EDF6E010EDA
:1005D600120003BA09D0038A01C0D9FF02C0DAFFAC
:1005E600200EDF6E020E12008450060B400AD8A4BD
:1005F60009D0038C01C0D9FF02C0DAFF400EDF6EBE
:10060600010E120003BC09D0038C01C0D9FF02C041
:10061600DAFF400EDF6E020E12008450070B800ACE
:10062600D8A409D0038E01C0D9FF02C0DAFF800E1C
:10063600DF6E010E120003BE09D0038E01C0D9FF82
:1006460002C0DAFF800EDF6E020E1200000E1200EC
:10065600000E026E140E016E20EC07F080EC06F020
:100666002C0E0C6E000E0D6E8FEC07F0100E2C1873
:1006760003E1100E2D18D8A497EC07F089EC04F0CE
:100686000009D8A497EC07F0030E2B6EC40E2A6E51
:100696002AC016F02BC017F047EC06F0800E351274
:1006A600040E3612030ECCEC05F0000E4B12F00EC3
:1006B6004C120E0ECCEC05F02E0E016E000E026EE4
:1006C60072EC02F0296E000E026E140E016E20EC22
:1006D60007F02904D8B424D0EFD7010EABEC01F013
:1006E600EBD7000EABEC01F0E7D72AC020F02BC009
:1006F60021F0010E0DEC06F0DFD72AC020F02BC04A
:1007060021F0000E0DEC06F0D7D7010E89EC05F0AE
:10071600D3D7000E89EC05F0CFD797EC07F0CCD7EE
:100726002E50010AD8B4D9D7030AD8B4DAD7060AA4
:10073600D8B4DBD70C0AD8B4E0D7180AD8B4E5D7B2
:10074600300AD8B4E6D7A00AD8B4E7D7B5D709C0D7
:100756000BF00C6A0D6A08340B3601E30C800B5063
:10076600156E1550D8A409D0000E076E000E086E3F
:10077600000E096E000E0A6E1200170E0B6E07C0F1
:100786000CF008C00DF009C00EF00B280F6E04D057
:10079600D8900E320D320C320F2EFAD70C50106E46
:1007A600088EFF0E0716FF0E0816000E09160750D4
:1007B600116E0850126E0950136E146A8E0E155E75
:1007C60015AE16D01550800A8F0FD8B009D0000E7E
:1007D600076E000E086E000E096E000E0A6E1200FD
:1007E600D8901432133212321132153EF9D715D081
:1007F600170E15640FD0000E076E000E086E000E61
:10080600096E000E0A6E1200D89011361236133693
:10081600143615061550D8A4F7D71050D8B408D0FA
:10082600141E131E121E116C000E12221322142205
:1008360011C007F012C008F013C009F014C00AF086
:100846001200096EC580C5B0FED786EC07F0200EF3
:10085600B2EC06F00009D8B402D0010E120086EC04
:1008660007F00950B2EC06F086EC07F0C582C5B277
:10087600FED786EC07F0210EB2EC06F086EC07F008
:100886006DEC07F00A6E86EC07F0C59AC588C5B808
:10089600FED786EC07F06DEC07F00B6E86EC07F0E2
:1008A600C58AC588C5B8FED786EC07F0C584C5B429
:1008B600FED786EC07F00A50056E066A03C0D9FF1C
:1008C60004C0DAFF05C0DEFF06C0DDFF03C0D9FFA6
:1008D60004C0DAFFDE50DD6EDF6A03C0D9FF04C054
:1008E600DAFFDECF05F0DDCF06F00B50076E086AA3
:1008F600055007120650081203C0D9FF04C0DAFFDC
:1009060007C0DEFF08C0DDFF000E1200000E146EE9
:10091600110E146401D018D01450020D270EF324C2
:10092600F66E030EF420F76E1450020D2F0EF3240C
:10093600D96E000EF420DA6E0900F5CFDEFF08004E
:10094600F5CFDDFF142AE4D72FC012F030C013F024
:100956002F90000ECCEC05F00009D8B402D0010EA1
:100966001200010E146E110E146401D00AD0145038
:10097600CCEC05F00009D8B402D0010E1200142AFE
:10098600F2D7010E12102F6E1350306E000ECCEC03
:1009960005F00009D8B402D0010E1200000E026E56
:1009A600140E016E20EC07F006D0000E026E020E49
:1009B600016E20EC07F0120E0C6E000E0D6EE1ECCF
:1009C60006F012501310D8B4F0D7000E12000450DF
:1009D600D8B405D0015002100310D8A40CD0000ED4
:1009E600016E000E026E000E036E1200042AD890ED
:1009F600033202320132000E0114066E000E02149A
:100A0600076EFE0E0314086E065007100810D8B4C1
:100A16000CD0ECD7042A010E0126000E0222000E8D
:100A26000322D890033202320132000E0114066E00
:100A3600000E0214076EFF0E0314086E0650071010
:100A46000810D8B406D0E6D70406D8900136023688
:100A5600033602BE03D0020E0460F6D704A0029E3F
:100A6600D8900432045003120550D8A4038E01C056
:100A760001F002C002F003C003F012000EAE16D061
:100A86000CC012F00DC013F00EC014F0121E131E8F
:100A9600141E122A000E13221422000E12240C6EAB
:100AA600000E13200D6E800E14200E6E11AE16D0A1
:100AB6000FC012F010C013F011C014F0121E131E56
:100AC600141E122A000E13221422000E12240F6E78
:100AD600000E1320106E800E1420116E000E0C1ADC
:100AE600000E0D1A800E0E1A000E0F1A000E101AA6
:100AF600800E111A0F500C5C10500D5811500E58E4
:100B0600D8B002D0D8901200D8801200086E0850D3
:100B1600D8B405D00C0E53601200532A04D053509B
:100B2600D8B4120053065350020D010EF324F66E8C
:100B3600030EF420F76E0800F550096E0A6A070ED8
:100B4600D89009360A36E82EFBD7095035120A50D6
:100B56003612030ECCEC05F00009D8A4120053504F
:100B6600020D010EF324F66E030EF420F76E080054
:100B7600F550096E0A6A0C0ED89009360A36E82E28
:100B8600FBD709504B120A504C120E0ECCEC05F056
:100B96001200076E0750020D2F0EF324D96E000EB9
:100BA600F420DA6EDECF03F0DDCF04F004C003F0EC
:100BB600046A0350056E0750020D2F0EF324D96EFA
:100BC600000EF420DA6EDF50066EC580C5B0FED783
:100BD60086EC07F0200EB2EC06F00009D8B402D07D
:100BE600010E120086EC07F00750B2EC06F086EC18
:100BF60007F00550B2EC06F086EC07F00650B2ECB2
:100C060006F086EC07F0C584C5B4FED786EC07F07F
:100C1600000E1200266E270E0C6E000E0D6E04ECF2
:100C260007F0E806D8B412002650D8B40FD0010E4B
:100C36002724226E000E2820236E390E225C040E15
:100C46002358D8B018D0274A282A15D0FF0E226E6E
:100C5600FF0E236E27C024F028C025F0225024263C
:100C6600235025226B0E245C030E2558D8A003D0F2
:100C76002706D8A02806B20E2724166E020E2820B4
:100C8600176E47EC06F012004E0E16241C6EFD0E73
:100C960017201D6E3492020ECCEC05F00009D8A484
:100CA6001200000E3316FE0E3416000E186E020EDB
:100CB600196E1CC01AF01DC01BF018501A121950DC
:100CC6001B121A5033121B503412020ECCEC05F0D4
:100CD6000009D8A41200000E026E020E016E20EC6E
:100CE60007F01E0E0C6E000E0D6EE1EC06F000090C
:100CF600D8A412001E501F10ECD7720ED36E0F012F
:100D06005A690F015B690F015C69000E0F015D6F87
:100D1600880E0F01596F360E0F01586F3F0EC16EC8
:100D2600030E926E210E936E180E946E9868000E46
:100D3600806E000E816E000E826E000E866EF2943C
:100D4600080ED56E000ED76E000ED66ED58E800EAE
:100D5600016E080E5EEC07F03F0EC86E1200026EC2
:100D660002C0C9FFC6AE02D0FF0E1200C6500F0B5E
:100D7600080AD8B40FD0C6500F0B0B0AD8B40AD045
:100D8600C6889EA6FED7C7A4C7B002D0FE0E120024
:100D9600000E1200C6500F0B080AD8B405D0C65074
:100DA6000F0B0B0AD8A41200C7B0FED786EC07F0CB
:100DB600C5AC02D0FE0E1200000E1200100E036E1D
:100DC600000E046E130E24EC04F00009D8B402D011
:100DD600010E1200200E1016000E111610501110E2
:100DE600D8B402D0010E01D0000E0E6E0F6A0CC0F0
:100DF600D9FF0DC0DAFF0EC0DEFF0FC0DDFF000E0B
:100E060012000CC003F00DC004F0130E24EC04F025
:100E16000009D8B402D0010E1200070E0E6E0CC0E7
:100E2600D9FF0DC0DAFF0E2804D0D92AD890DD32BA
:100E3600DF32E82EFAD7000E1200000E046E000E06
:100E4600036E0FD0030E046EE80E036E03D0030686
:100E5600D8A0040603500410D8A4F9D70106D8A0D8
:100E6600020601500210D8B41200ECD7015003025A
:100E7600F3CF05F0F4CF06F001500402F350062636
:100E860002500302F350062605C001F006C002F028
:100E9600120009C001F00AC002F0036A8E0E046E49
:100EA600000E056EEAEC04F001C009F002C00AF07B
:100EB60003C00BF01200026E3F0EC716000EC66E80
:100EC600000EC56E0250C6120150C7129486948851
:100ED600C68A1200C6500F0B080AD8B404D0C650F2
:100EE6000F0B0B0AD8B4C586C7A0FED7C95012008F
:100EF60000EE2FF0250EEE6AE806FDE1000EF86E14
:100F060000012BEF03F0C5CF01F01F0E0116D8A488
:100F1600FAD7C7A41200F7D70CC003F00DC004F02F
:0A0F26001C0E24EC04F01200FFD7AB
:020000040020DA
:08000000FFFFFFFFFFFFFFFF00
:020000040030CA
:0A000000FF09191EFF8180FF01FFB8
:00000001FF
